:1000000012C01FC01EC01DC01CC01BC01AC019C01A
:1000100018C017C016C015C014C013C012C011C03C
:1000200010C00FC00EC011241FBECFEDCDBF10E019
:10003000A0E6B0E001C01D92A436B107E1F71FD0E1
:10004000BAC0DECFC498C798C59828E087FF02C021
:10005000C59A01C0C59800C000C00000C79A00C082
:1000600000C00000C798880F991F215079F7C49AE3
:1000700000C000C00000C498C798C59808958FEFCD
:1000800087BB84E881BB18BA12BA12B88FE289B96B
:1000900088E18AB986E083B983E880BF82E083BFC4
:1000A00016BE1092630018E0C5E0D4E003E0FF2420
:1000B000F39442E0E42E5F9BFECF8CB1809362000C
:1000C00090B3987796959695969590936000C4987E
:1000D00020916300223029F130F4222359F021309D
:1000E00009F066C018C0233009F457C0243009F065
:1000F0005FC05CC0C398C198C098893909F450C0EA
:100100008A3A19F4F0926300D6CF8B3B09F050C0C5
:1001100000936300D0CFC39A891345C0E092630077
:10012000CACFC19A1092610080FD1093610081FFD7
:1001300005C09091610090619093610082FF05C0BD
:100140009091610090629093610083FF05C090914F
:10015000610090689093610084FF05C090916100F8
:1001600091609093610085FF05C09091610092605D
:100170009093610086FF05C0909161009460909318
:10018000610087FF05C080916100806480936100F9
:100190008091610090E056DF0BC0C39A891303C0C1
:1001A000D093630088CFC093630085CFC09A86BF89
:0A01B0001092630080CFF894FFCF97
:00000001FF
